{
  "contractName": "EcoStatistics",
  "abi": [
    {
      "anonymous": false,
      "inputs": [
        {
          "indexed": true,
          "internalType": "address",
          "name": "previousOwner",
          "type": "address"
        },
        {
          "indexed": true,
          "internalType": "address",
          "name": "newOwner",
          "type": "address"
        }
      ],
      "name": "OwnershipTransferred",
      "type": "event"
    },
    {
      "inputs": [],
      "name": "owner",
      "outputs": [
        {
          "internalType": "address",
          "name": "",
          "type": "address"
        }
      ],
      "stateMutability": "view",
      "type": "function",
      "constant": true
    },
    {
      "inputs": [],
      "name": "renounceOwnership",
      "outputs": [],
      "stateMutability": "nonpayable",
      "type": "function"
    },
    {
      "inputs": [
        {
          "internalType": "address",
          "name": "newOwner",
          "type": "address"
        }
      ],
      "name": "transferOwnership",
      "outputs": [],
      "stateMutability": "nonpayable",
      "type": "function"
    },
    {
      "inputs": [
        {
          "internalType": "uint256",
          "name": "_rank",
          "type": "uint256"
        },
        {
          "internalType": "string",
          "name": "_phone",
          "type": "string"
        },
        {
          "internalType": "int256",
          "name": "_point",
          "type": "int256"
        },
        {
          "internalType": "int256",
          "name": "_schoolId",
          "type": "int256"
        }
      ],
      "name": "setRank",
      "outputs": [],
      "stateMutability": "nonpayable",
      "type": "function"
    },
    {
      "inputs": [
        {
          "internalType": "uint256",
          "name": "_rank",
          "type": "uint256"
        }
      ],
      "name": "getStudentByRank",
      "outputs": [
        {
          "components": [
            {
              "internalType": "string",
              "name": "phone",
              "type": "string"
            },
            {
              "internalType": "int256",
              "name": "point",
              "type": "int256"
            },
            {
              "internalType": "int256",
              "name": "schoolId",
              "type": "int256"
            }
          ],
          "internalType": "struct EcoStatistics.Student",
          "name": "",
          "type": "tuple"
        }
      ],
      "stateMutability": "view",
      "type": "function",
      "constant": true
    }
  ],
  "bytecode": "0x608060405234801561001057600080fd5b5061002d61002261003260201b60201c565b61003a60201b60201c565b6100fe565b600033905090565b60008060009054906101000a900473ffffffffffffffffffffffffffffffffffffffff169050816000806101000a81548173ffffffffffffffffffffffffffffffffffffffff021916908373ffffffffffffffffffffffffffffffffffffffff1602179055508173ffffffffffffffffffffffffffffffffffffffff168173ffffffffffffffffffffffffffffffffffffffff167f8be0079c531659141344cd1fd0a4f28419497f9722a3daafe3b4186f6b6457e060405160405180910390a35050565b610ca78061010d6000396000f3fe608060405234801561001057600080fd5b50600436106100575760003560e01c806352eb89451461005c578063715018a6146100785780638da5cb5b14610082578063d87a2ac3146100a0578063f2fde38b146100d0575b600080fd5b6100766004803603810190610071919061061f565b6100ec565b005b61008061015b565b005b61008a61016f565b60405161009791906106e3565b60405180910390f35b6100ba60048036038101906100b591906106fe565b610198565b6040516100c79190610809565b60405180910390f35b6100ea60048036038101906100e59190610857565b61026b565b005b6100f46102ee565b600060405180606001604052808581526020018481526020018381525090508060016000878152602001908152602001600020600082015181600001908161013c9190610a90565b5060208201518160010155604082015181600201559050505050505050565b6101636102ee565b61016d600061036c565b565b60008060009054906101000a900473ffffffffffffffffffffffffffffffffffffffff16905090565b6101a0610438565b600160008381526020019081526020016000206040518060600160405290816000820180546101ce906108b3565b80601f01602080910402602001604051908101604052809291908181526020018280546101fa906108b3565b80156102475780601f1061021c57610100808354040283529160200191610247565b820191906000526020600020905b81548152906001019060200180831161022a57829003601f168201915b50505050508152602001600182015481526020016002820154815250509050919050565b6102736102ee565b600073ffffffffffffffffffffffffffffffffffffffff168173ffffffffffffffffffffffffffffffffffffffff16036102e2576040517f08c379a00000000000000000000000000000000000000000000000000000000081526004016102d990610be5565b60405180910390fd5b6102eb8161036c565b50565b6102f6610430565b73ffffffffffffffffffffffffffffffffffffffff1661031461016f565b73ffffffffffffffffffffffffffffffffffffffff161461036a576040517f08c379a000000000000000000000000000000000000000000000000000000000815260040161036190610c51565b60405180910390fd5b565b60008060009054906101000a900473ffffffffffffffffffffffffffffffffffffffff169050816000806101000a81548173ffffffffffffffffffffffffffffffffffffffff021916908373ffffffffffffffffffffffffffffffffffffffff1602179055508173ffffffffffffffffffffffffffffffffffffffff168173ffffffffffffffffffffffffffffffffffffffff167f8be0079c531659141344cd1fd0a4f28419497f9722a3daafe3b4186f6b6457e060405160405180910390a35050565b600033905090565b60405180606001604052806060815260200160008152602001600081525090565b6000604051905090565b600080fd5b600080fd5b6000819050919050565b6104808161046d565b811461048b57600080fd5b50565b60008135905061049d81610477565b92915050565b600080fd5b600080fd5b6000601f19601f8301169050919050565b7f4e487b7100000000000000000000000000000000000000000000000000000000600052604160045260246000fd5b6104f6826104ad565b810181811067ffffffffffffffff82111715610515576105146104be565b5b80604052505050565b6000610528610459565b905061053482826104ed565b919050565b600067ffffffffffffffff821115610554576105536104be565b5b61055d826104ad565b9050602081019050919050565b82818337600083830152505050565b600061058c61058784610539565b61051e565b9050828152602081018484840111156105a8576105a76104a8565b5b6105b384828561056a565b509392505050565b600082601f8301126105d0576105cf6104a3565b5b81356105e0848260208601610579565b91505092915050565b6000819050919050565b6105fc816105e9565b811461060757600080fd5b50565b600081359050610619816105f3565b92915050565b6000806000806080858703121561063957610638610463565b5b60006106478782880161048e565b945050602085013567ffffffffffffffff81111561066857610667610468565b5b610674878288016105bb565b93505060406106858782880161060a565b92505060606106968782880161060a565b91505092959194509250565b600073ffffffffffffffffffffffffffffffffffffffff82169050919050565b60006106cd826106a2565b9050919050565b6106dd816106c2565b82525050565b60006020820190506106f860008301846106d4565b92915050565b60006020828403121561071457610713610463565b5b60006107228482850161048e565b91505092915050565b600081519050919050565b600082825260208201905092915050565b60005b8381101561076557808201518184015260208101905061074a565b60008484015250505050565b600061077c8261072b565b6107868185610736565b9350610796818560208601610747565b61079f816104ad565b840191505092915050565b6107b3816105e9565b82525050565b600060608301600083015184820360008601526107d68282610771565b91505060208301516107eb60208601826107aa565b5060408301516107fe60408601826107aa565b508091505092915050565b6000602082019050818103600083015261082381846107b9565b905092915050565b610834816106c2565b811461083f57600080fd5b50565b6000813590506108518161082b565b92915050565b60006020828403121561086d5761086c610463565b5b600061087b84828501610842565b91505092915050565b7f4e487b7100000000000000000000000000000000000000000000000000000000600052602260045260246000fd5b600060028204905060018216806108cb57607f821691505b6020821081036108de576108dd610884565b5b50919050565b60008190508160005260206000209050919050565b60006020601f8301049050919050565b600082821b905092915050565b6000600883026109467fffffffffffffffffffffffffffffffffffffffffffffffffffffffffffffffff82610909565b6109508683610909565b95508019841693508086168417925050509392505050565b6000819050919050565b600061098d6109886109838461046d565b610968565b61046d565b9050919050565b6000819050919050565b6109a783610972565b6109bb6109b382610994565b848454610916565b825550505050565b600090565b6109d06109c3565b6109db81848461099e565b505050565b5b818110156109ff576109f46000826109c8565b6001810190506109e1565b5050565b601f821115610a4457610a15816108e4565b610a1e846108f9565b81016020851015610a2d578190505b610a41610a39856108f9565b8301826109e0565b50505b505050565b600082821c905092915050565b6000610a6760001984600802610a49565b1980831691505092915050565b6000610a808383610a56565b9150826002028217905092915050565b610a998261072b565b67ffffffffffffffff811115610ab257610ab16104be565b5b610abc82546108b3565b610ac7828285610a03565b600060209050601f831160018114610afa5760008415610ae8578287015190505b610af28582610a74565b865550610b5a565b601f198416610b08866108e4565b60005b82811015610b3057848901518255600182019150602085019450602081019050610b0b565b86831015610b4d5784890151610b49601f891682610a56565b8355505b6001600288020188555050505b505050505050565b600082825260208201905092915050565b7f4f776e61626c653a206e6577206f776e657220697320746865207a65726f206160008201527f6464726573730000000000000000000000000000000000000000000000000000602082015250565b6000610bcf602683610b62565b9150610bda82610b73565b604082019050919050565b60006020820190508181036000830152610bfe81610bc2565b9050919050565b7f4f776e61626c653a2063616c6c6572206973206e6f7420746865206f776e6572600082015250565b6000610c3b602083610b62565b9150610c4682610c05565b602082019050919050565b60006020820190508181036000830152610c6a81610c2e565b905091905056fea264697066735822122063e9cf1076e5855c711555c3209188955e5e0bbda673d093b28f8e8cd45b3e0764736f6c63430008110033",
  "immutableReferences": {},
  "source": "// SPDX-License-Identifier: MIT\npragma solidity ^0.8.9;\n\nimport \"@openzeppelin/contracts/access/Ownable.sol\";\n\ncontract EcoStatistics is Ownable {\n    mapping(uint => Student) ranks;\n    struct Student {\n        string phone;\n        int256 point;\n        int256 schoolId;\n    }\n\n    function setRank(\n        uint _rank,\n        string memory _phone,\n        int256 _point,\n        int256 _schoolId\n    ) public onlyOwner {\n        Student memory std = Student(_phone, _point, _schoolId);\n        ranks[_rank] = std;\n    }\n\n    function getStudentByRank(uint _rank) public view returns (Student memory) {\n        return ranks[_rank];\n    }\n}\n",
  "sourcePath": "/Users/yunjichoi/development/working/ecocircle/ecocircleBlockchain/contracts/EcoStatistics.sol",
  "compiler": {
    "name": "solc",
    "version": "0.8.17+commit.8df45f5f.Emscripten.clang"
  },
  "schemaVersion": "3.4.7",
  "updatedAt": "2022-11-29T15:28:45.002Z",
  "networkType": "ethereum",
  "devdoc": {
    "kind": "dev",
    "methods": {
      "owner()": {
        "details": "Returns the address of the current owner."
      },
      "renounceOwnership()": {
        "details": "Leaves the contract without owner. It will not be possible to call `onlyOwner` functions anymore. Can only be called by the current owner. NOTE: Renouncing ownership will leave the contract without an owner, thereby removing any functionality that is only available to the owner."
      },
      "transferOwnership(address)": {
        "details": "Transfers ownership of the contract to a new account (`newOwner`). Can only be called by the current owner."
      }
    },
    "version": 1
  },
  "userdoc": {
    "kind": "user",
    "methods": {},
    "version": 1
  }
}