{
  "contractName": "EcoStatistics",
  "abi": [
    {
      "anonymous": false,
      "inputs": [
        {
          "indexed": true,
          "internalType": "address",
          "name": "previousOwner",
          "type": "address"
        },
        {
          "indexed": true,
          "internalType": "address",
          "name": "newOwner",
          "type": "address"
        }
      ],
      "name": "OwnershipTransferred",
      "type": "event"
    },
    {
      "inputs": [],
      "name": "allRanks",
      "outputs": [
        {
          "internalType": "string",
          "name": "",
          "type": "string"
        }
      ],
      "stateMutability": "view",
      "type": "function",
      "constant": true
    },
    {
      "inputs": [],
      "name": "owner",
      "outputs": [
        {
          "internalType": "address",
          "name": "",
          "type": "address"
        }
      ],
      "stateMutability": "view",
      "type": "function",
      "constant": true
    },
    {
      "inputs": [],
      "name": "renounceOwnership",
      "outputs": [],
      "stateMutability": "nonpayable",
      "type": "function"
    },
    {
      "inputs": [
        {
          "internalType": "address",
          "name": "newOwner",
          "type": "address"
        }
      ],
      "name": "transferOwnership",
      "outputs": [],
      "stateMutability": "nonpayable",
      "type": "function"
    },
    {
      "inputs": [
        {
          "internalType": "uint256",
          "name": "_rank",
          "type": "uint256"
        },
        {
          "internalType": "string",
          "name": "_phone",
          "type": "string"
        },
        {
          "internalType": "int256",
          "name": "_point",
          "type": "int256"
        },
        {
          "internalType": "int256",
          "name": "_schoolId",
          "type": "int256"
        }
      ],
      "name": "setRank",
      "outputs": [],
      "stateMutability": "nonpayable",
      "type": "function"
    },
    {
      "inputs": [
        {
          "internalType": "uint256",
          "name": "_rank",
          "type": "uint256"
        }
      ],
      "name": "getStudentByRank",
      "outputs": [
        {
          "components": [
            {
              "internalType": "string",
              "name": "phone",
              "type": "string"
            },
            {
              "internalType": "int256",
              "name": "point",
              "type": "int256"
            },
            {
              "internalType": "int256",
              "name": "schoolId",
              "type": "int256"
            }
          ],
          "internalType": "struct EcoStatistics.Student",
          "name": "",
          "type": "tuple"
        }
      ],
      "stateMutability": "view",
      "type": "function",
      "constant": true
    },
    {
      "inputs": [
        {
          "internalType": "string",
          "name": "_ranks",
          "type": "string"
        }
      ],
      "name": "setAllRanks",
      "outputs": [],
      "stateMutability": "nonpayable",
      "type": "function"
    }
  ],
  "bytecode": "0x608060405234801561001057600080fd5b5061002d61002261003260201b60201c565b61003a60201b60201c565b6100fe565b600033905090565b60008060009054906101000a900473ffffffffffffffffffffffffffffffffffffffff169050816000806101000a81548173ffffffffffffffffffffffffffffffffffffffff021916908373ffffffffffffffffffffffffffffffffffffffff1602179055508173ffffffffffffffffffffffffffffffffffffffff168173ffffffffffffffffffffffffffffffffffffffff167f8be0079c531659141344cd1fd0a4f28419497f9722a3daafe3b4186f6b6457e060405160405180910390a35050565b610e548061010d6000396000f3fe608060405234801561001057600080fd5b506004361061007d5760003560e01c80638da5cb5b1161005b5780638da5cb5b146100c4578063b96878a1146100e2578063d87a2ac314610100578063f2fde38b146101305761007d565b806316a0b2071461008257806352eb89451461009e578063715018a6146100ba575b600080fd5b61009c600480360381019061009791906106bc565b61014c565b005b6100b860048036038101906100b39190610771565b610167565b005b6100c26101d6565b005b6100cc6101ea565b6040516100d99190610835565b60405180910390f35b6100ea610213565b6040516100f791906108cf565b60405180910390f35b61011a600480360381019061011591906108f1565b6102a1565b60405161012791906109c7565b60405180910390f35b61014a60048036038101906101459190610a15565b610374565b005b6101546103f7565b80600290816101639190610c4e565b5050565b61016f6103f7565b60006040518060600160405280858152602001848152602001838152509050806001600087815260200190815260200160002060008201518160000190816101b79190610c4e565b5060208201518160010155604082015181600201559050505050505050565b6101de6103f7565b6101e86000610475565b565b60008060009054906101000a900473ffffffffffffffffffffffffffffffffffffffff16905090565b6002805461022090610a71565b80601f016020809104026020016040519081016040528092919081815260200182805461024c90610a71565b80156102995780601f1061026e57610100808354040283529160200191610299565b820191906000526020600020905b81548152906001019060200180831161027c57829003601f168201915b505050505081565b6102a9610541565b600160008381526020019081526020016000206040518060600160405290816000820180546102d790610a71565b80601f016020809104026020016040519081016040528092919081815260200182805461030390610a71565b80156103505780601f1061032557610100808354040283529160200191610350565b820191906000526020600020905b81548152906001019060200180831161033357829003601f168201915b50505050508152602001600182015481526020016002820154815250509050919050565b61037c6103f7565b600073ffffffffffffffffffffffffffffffffffffffff168173ffffffffffffffffffffffffffffffffffffffff16036103eb576040517f08c379a00000000000000000000000000000000000000000000000000000000081526004016103e290610d92565b60405180910390fd5b6103f481610475565b50565b6103ff610539565b73ffffffffffffffffffffffffffffffffffffffff1661041d6101ea565b73ffffffffffffffffffffffffffffffffffffffff1614610473576040517f08c379a000000000000000000000000000000000000000000000000000000000815260040161046a90610dfe565b60405180910390fd5b565b60008060009054906101000a900473ffffffffffffffffffffffffffffffffffffffff169050816000806101000a81548173ffffffffffffffffffffffffffffffffffffffff021916908373ffffffffffffffffffffffffffffffffffffffff1602179055508173ffffffffffffffffffffffffffffffffffffffff168173ffffffffffffffffffffffffffffffffffffffff167f8be0079c531659141344cd1fd0a4f28419497f9722a3daafe3b4186f6b6457e060405160405180910390a35050565b600033905090565b60405180606001604052806060815260200160008152602001600081525090565b6000604051905090565b600080fd5b600080fd5b600080fd5b600080fd5b6000601f19601f8301169050919050565b7f4e487b7100000000000000000000000000000000000000000000000000000000600052604160045260246000fd5b6105c982610580565b810181811067ffffffffffffffff821117156105e8576105e7610591565b5b80604052505050565b60006105fb610562565b905061060782826105c0565b919050565b600067ffffffffffffffff82111561062757610626610591565b5b61063082610580565b9050602081019050919050565b82818337600083830152505050565b600061065f61065a8461060c565b6105f1565b90508281526020810184848401111561067b5761067a61057b565b5b61068684828561063d565b509392505050565b600082601f8301126106a3576106a2610576565b5b81356106b384826020860161064c565b91505092915050565b6000602082840312156106d2576106d161056c565b5b600082013567ffffffffffffffff8111156106f0576106ef610571565b5b6106fc8482850161068e565b91505092915050565b6000819050919050565b61071881610705565b811461072357600080fd5b50565b6000813590506107358161070f565b92915050565b6000819050919050565b61074e8161073b565b811461075957600080fd5b50565b60008135905061076b81610745565b92915050565b6000806000806080858703121561078b5761078a61056c565b5b600061079987828801610726565b945050602085013567ffffffffffffffff8111156107ba576107b9610571565b5b6107c68782880161068e565b93505060406107d78782880161075c565b92505060606107e88782880161075c565b91505092959194509250565b600073ffffffffffffffffffffffffffffffffffffffff82169050919050565b600061081f826107f4565b9050919050565b61082f81610814565b82525050565b600060208201905061084a6000830184610826565b92915050565b600081519050919050565b600082825260208201905092915050565b60005b8381101561088a57808201518184015260208101905061086f565b60008484015250505050565b60006108a182610850565b6108ab818561085b565b93506108bb81856020860161086c565b6108c481610580565b840191505092915050565b600060208201905081810360008301526108e98184610896565b905092915050565b6000602082840312156109075761090661056c565b5b600061091584828501610726565b91505092915050565b600082825260208201905092915050565b600061093a82610850565b610944818561091e565b935061095481856020860161086c565b61095d81610580565b840191505092915050565b6109718161073b565b82525050565b60006060830160008301518482036000860152610994828261092f565b91505060208301516109a96020860182610968565b5060408301516109bc6040860182610968565b508091505092915050565b600060208201905081810360008301526109e18184610977565b905092915050565b6109f281610814565b81146109fd57600080fd5b50565b600081359050610a0f816109e9565b92915050565b600060208284031215610a2b57610a2a61056c565b5b6000610a3984828501610a00565b91505092915050565b7f4e487b7100000000000000000000000000000000000000000000000000000000600052602260045260246000fd5b60006002820490506001821680610a8957607f821691505b602082108103610a9c57610a9b610a42565b5b50919050565b60008190508160005260206000209050919050565b60006020601f8301049050919050565b600082821b905092915050565b600060088302610b047fffffffffffffffffffffffffffffffffffffffffffffffffffffffffffffffff82610ac7565b610b0e8683610ac7565b95508019841693508086168417925050509392505050565b6000819050919050565b6000610b4b610b46610b4184610705565b610b26565b610705565b9050919050565b6000819050919050565b610b6583610b30565b610b79610b7182610b52565b848454610ad4565b825550505050565b600090565b610b8e610b81565b610b99818484610b5c565b505050565b5b81811015610bbd57610bb2600082610b86565b600181019050610b9f565b5050565b601f821115610c0257610bd381610aa2565b610bdc84610ab7565b81016020851015610beb578190505b610bff610bf785610ab7565b830182610b9e565b50505b505050565b600082821c905092915050565b6000610c2560001984600802610c07565b1980831691505092915050565b6000610c3e8383610c14565b9150826002028217905092915050565b610c5782610850565b67ffffffffffffffff811115610c7057610c6f610591565b5b610c7a8254610a71565b610c85828285610bc1565b600060209050601f831160018114610cb85760008415610ca6578287015190505b610cb08582610c32565b865550610d18565b601f198416610cc686610aa2565b60005b82811015610cee57848901518255600182019150602085019450602081019050610cc9565b86831015610d0b5784890151610d07601f891682610c14565b8355505b6001600288020188555050505b505050505050565b7f4f776e61626c653a206e6577206f776e657220697320746865207a65726f206160008201527f6464726573730000000000000000000000000000000000000000000000000000602082015250565b6000610d7c60268361085b565b9150610d8782610d20565b604082019050919050565b60006020820190508181036000830152610dab81610d6f565b9050919050565b7f4f776e61626c653a2063616c6c6572206973206e6f7420746865206f776e6572600082015250565b6000610de860208361085b565b9150610df382610db2565b602082019050919050565b60006020820190508181036000830152610e1781610ddb565b905091905056fea26469706673582212205b77ab998538e22266ef08d680e1ade0793e1cf8cf8ab8d30b9ae725144a7b1164736f6c63430008110033",
  "immutableReferences": {},
  "source": "// SPDX-License-Identifier: MIT\npragma solidity ^0.8.9;\n\nimport \"@openzeppelin/contracts/access/Ownable.sol\";\n\ncontract EcoStatistics is Ownable {\n    mapping(uint => Student) ranks;\n    struct Student {\n        string phone;\n        int256 point;\n        int256 schoolId;\n    }\n\n    string public allRanks;\n\n    function setRank(\n        uint _rank,\n        string memory _phone,\n        int256 _point,\n        int256 _schoolId\n    ) public onlyOwner {\n        Student memory std = Student(_phone, _point, _schoolId);\n        ranks[_rank] = std;\n    }\n\n    function getStudentByRank(uint _rank) public view returns (Student memory) {\n        return ranks[_rank];\n    }\n\n    function setAllRanks(string memory _ranks) public onlyOwner {\n        allRanks = _ranks;\n    }\n}\n",
  "sourcePath": "/Users/yunjichoi/development/working/ecocircle/ecocircleBlockchain/contracts/EcoStatistics.sol",
  "compiler": {
    "name": "solc",
    "version": "0.8.17+commit.8df45f5f.Emscripten.clang"
  },
  "schemaVersion": "3.4.7",
  "updatedAt": "2022-11-29T17:57:35.377Z",
  "networkType": "ethereum",
  "devdoc": {
    "kind": "dev",
    "methods": {
      "owner()": {
        "details": "Returns the address of the current owner."
      },
      "renounceOwnership()": {
        "details": "Leaves the contract without owner. It will not be possible to call `onlyOwner` functions anymore. Can only be called by the current owner. NOTE: Renouncing ownership will leave the contract without an owner, thereby removing any functionality that is only available to the owner."
      },
      "transferOwnership(address)": {
        "details": "Transfers ownership of the contract to a new account (`newOwner`). Can only be called by the current owner."
      }
    },
    "version": 1
  },
  "userdoc": {
    "kind": "user",
    "methods": {},
    "version": 1
  }
}