{
  "contractName": "Test",
  "abi": [
    {
      "inputs": [],
      "name": "a",
      "outputs": [
        {
          "internalType": "uint256",
          "name": "",
          "type": "uint256"
        }
      ],
      "stateMutability": "view",
      "type": "function"
    },
    {
      "inputs": [
        {
          "internalType": "uint256",
          "name": "_newA",
          "type": "uint256"
        }
      ],
      "name": "show",
      "outputs": [
        {
          "internalType": "uint256",
          "name": "",
          "type": "uint256"
        }
      ],
      "stateMutability": "nonpayable",
      "type": "function"
    }
  ],
  "bytecode": "0x608060405234801561001057600080fd5b5061016a806100206000396000f3fe608060405234801561001057600080fd5b50600436106100365760003560e01c80630dbe671f1461003b5780638b514ed714610059575b600080fd5b610043610089565b60405161005091906100bb565b60405180910390f35b610073600480360381019061006e9190610107565b61008f565b60405161008091906100bb565b60405180910390f35b60005481565b6000816000819055506000549050919050565b6000819050919050565b6100b5816100a2565b82525050565b60006020820190506100d060008301846100ac565b92915050565b600080fd5b6100e4816100a2565b81146100ef57600080fd5b50565b600081359050610101816100db565b92915050565b60006020828403121561011d5761011c6100d6565b5b600061012b848285016100f2565b9150509291505056fea2646970667358221220a62a9ebb03447e1cccea2524e30042c3d7d98a43546c2b628a63ffed38af7e1264736f6c63430008110033",
  "immutableReferences": {},
  "source": "// SPDX-License-Identifier: MIT\npragma solidity ^0.8.9;\n\ncontract Test {\n    uint256 public a;\n\n    function show(uint256 _newA) public returns (uint256) {\n        a = _newA;\n        return a;\n    }\n}\n",
  "sourcePath": "/Users/yunjichoi/development/working/ecocircle/ecocircleBlockchain/contracts/Test.sol",
  "compiler": {
    "name": "solc",
    "version": "0.8.17+commit.8df45f5f.Emscripten.clang"
  },
  "schemaVersion": "3.4.7",
  "updatedAt": "2022-10-06T05:35:18.139Z",
  "devdoc": {
    "kind": "dev",
    "methods": {},
    "version": 1
  },
  "userdoc": {
    "kind": "user",
    "methods": {},
    "version": 1
  }
}