{
  "contractName": "Token",
  "abi": [
    {
      "inputs": [
        {
          "internalType": "uint256",
          "name": "initialSupply",
          "type": "uint256"
        },
        {
          "internalType": "string",
          "name": "_name",
          "type": "string"
        },
        {
          "internalType": "string",
          "name": "_symbol",
          "type": "string"
        }
      ],
      "stateMutability": "nonpayable",
      "type": "constructor"
    },
    {
      "anonymous": false,
      "inputs": [
        {
          "indexed": true,
          "internalType": "address",
          "name": "owner",
          "type": "address"
        },
        {
          "indexed": true,
          "internalType": "address",
          "name": "spender",
          "type": "address"
        },
        {
          "indexed": false,
          "internalType": "uint256",
          "name": "value",
          "type": "uint256"
        }
      ],
      "name": "Approval",
      "type": "event"
    },
    {
      "anonymous": false,
      "inputs": [
        {
          "indexed": true,
          "internalType": "address",
          "name": "previousOwner",
          "type": "address"
        },
        {
          "indexed": true,
          "internalType": "address",
          "name": "newOwner",
          "type": "address"
        }
      ],
      "name": "OwnershipTransferred",
      "type": "event"
    },
    {
      "anonymous": false,
      "inputs": [
        {
          "indexed": true,
          "internalType": "address",
          "name": "from",
          "type": "address"
        },
        {
          "indexed": true,
          "internalType": "address",
          "name": "to",
          "type": "address"
        },
        {
          "indexed": false,
          "internalType": "uint256",
          "name": "value",
          "type": "uint256"
        }
      ],
      "name": "Transfer",
      "type": "event"
    },
    {
      "inputs": [
        {
          "internalType": "address",
          "name": "owner",
          "type": "address"
        },
        {
          "internalType": "address",
          "name": "spender",
          "type": "address"
        }
      ],
      "name": "allowance",
      "outputs": [
        {
          "internalType": "uint256",
          "name": "",
          "type": "uint256"
        }
      ],
      "stateMutability": "view",
      "type": "function",
      "constant": true
    },
    {
      "inputs": [
        {
          "internalType": "address",
          "name": "spender",
          "type": "address"
        },
        {
          "internalType": "uint256",
          "name": "amount",
          "type": "uint256"
        }
      ],
      "name": "approve",
      "outputs": [
        {
          "internalType": "bool",
          "name": "",
          "type": "bool"
        }
      ],
      "stateMutability": "nonpayable",
      "type": "function"
    },
    {
      "inputs": [
        {
          "internalType": "address",
          "name": "account",
          "type": "address"
        }
      ],
      "name": "balanceOf",
      "outputs": [
        {
          "internalType": "uint256",
          "name": "",
          "type": "uint256"
        }
      ],
      "stateMutability": "view",
      "type": "function",
      "constant": true
    },
    {
      "inputs": [
        {
          "internalType": "address",
          "name": "spender",
          "type": "address"
        },
        {
          "internalType": "uint256",
          "name": "subtractedValue",
          "type": "uint256"
        }
      ],
      "name": "decreaseAllowance",
      "outputs": [
        {
          "internalType": "bool",
          "name": "",
          "type": "bool"
        }
      ],
      "stateMutability": "nonpayable",
      "type": "function"
    },
    {
      "inputs": [
        {
          "internalType": "address",
          "name": "spender",
          "type": "address"
        },
        {
          "internalType": "uint256",
          "name": "addedValue",
          "type": "uint256"
        }
      ],
      "name": "increaseAllowance",
      "outputs": [
        {
          "internalType": "bool",
          "name": "",
          "type": "bool"
        }
      ],
      "stateMutability": "nonpayable",
      "type": "function"
    },
    {
      "inputs": [],
      "name": "name",
      "outputs": [
        {
          "internalType": "string",
          "name": "",
          "type": "string"
        }
      ],
      "stateMutability": "view",
      "type": "function",
      "constant": true
    },
    {
      "inputs": [],
      "name": "owner",
      "outputs": [
        {
          "internalType": "address",
          "name": "",
          "type": "address"
        }
      ],
      "stateMutability": "view",
      "type": "function",
      "constant": true
    },
    {
      "inputs": [],
      "name": "renounceOwnership",
      "outputs": [],
      "stateMutability": "nonpayable",
      "type": "function"
    },
    {
      "inputs": [],
      "name": "symbol",
      "outputs": [
        {
          "internalType": "string",
          "name": "",
          "type": "string"
        }
      ],
      "stateMutability": "view",
      "type": "function",
      "constant": true
    },
    {
      "inputs": [],
      "name": "totalSupply",
      "outputs": [
        {
          "internalType": "uint256",
          "name": "",
          "type": "uint256"
        }
      ],
      "stateMutability": "view",
      "type": "function",
      "constant": true
    },
    {
      "inputs": [
        {
          "internalType": "address",
          "name": "to",
          "type": "address"
        },
        {
          "internalType": "uint256",
          "name": "amount",
          "type": "uint256"
        }
      ],
      "name": "transfer",
      "outputs": [
        {
          "internalType": "bool",
          "name": "",
          "type": "bool"
        }
      ],
      "stateMutability": "nonpayable",
      "type": "function"
    },
    {
      "inputs": [
        {
          "internalType": "address",
          "name": "from",
          "type": "address"
        },
        {
          "internalType": "address",
          "name": "to",
          "type": "address"
        },
        {
          "internalType": "uint256",
          "name": "amount",
          "type": "uint256"
        }
      ],
      "name": "transferFrom",
      "outputs": [
        {
          "internalType": "bool",
          "name": "",
          "type": "bool"
        }
      ],
      "stateMutability": "nonpayable",
      "type": "function"
    },
    {
      "inputs": [
        {
          "internalType": "address",
          "name": "newOwner",
          "type": "address"
        }
      ],
      "name": "transferOwnership",
      "outputs": [],
      "stateMutability": "nonpayable",
      "type": "function"
    },
    {
      "inputs": [
        {
          "internalType": "uint256",
          "name": "amount",
          "type": "uint256"
        }
      ],
      "name": "mint",
      "outputs": [],
      "stateMutability": "nonpayable",
      "type": "function"
    },
    {
      "inputs": [
        {
          "internalType": "uint256",
          "name": "amount",
          "type": "uint256"
        }
      ],
      "name": "burn",
      "outputs": [],
      "stateMutability": "nonpayable",
      "type": "function"
    },
    {
      "inputs": [],
      "name": "decimals",
      "outputs": [
        {
          "internalType": "uint8",
          "name": "",
          "type": "uint8"
        }
      ],
      "stateMutability": "view",
      "type": "function",
      "constant": true
    },
    {
      "inputs": [],
      "name": "test",
      "outputs": [
        {
          "internalType": "address",
          "name": "",
          "type": "address"
        }
      ],
      "stateMutability": "view",
      "type": "function",
      "constant": true
    }
  ],
  "bytecode": "0x60806040523480156200001157600080fd5b506040516200256f3803806200256f8339818101604052810190620000379190620004b8565b818181600390816200004a919062000793565b5080600490816200005c919062000793565b5050506200007f620000736200009a60201b60201c565b620000a260201b60201c565b6200009133846200016860201b60201c565b50505062000995565b600033905090565b6000600560009054906101000a900473ffffffffffffffffffffffffffffffffffffffff16905081600560006101000a81548173ffffffffffffffffffffffffffffffffffffffff021916908373ffffffffffffffffffffffffffffffffffffffff1602179055508173ffffffffffffffffffffffffffffffffffffffff168173ffffffffffffffffffffffffffffffffffffffff167f8be0079c531659141344cd1fd0a4f28419497f9722a3daafe3b4186f6b6457e060405160405180910390a35050565b600073ffffffffffffffffffffffffffffffffffffffff168273ffffffffffffffffffffffffffffffffffffffff1603620001da576040517f08c379a0000000000000000000000000000000000000000000000000000000008152600401620001d190620008db565b60405180910390fd5b620001ee60008383620002e060201b60201c565b80600260008282546200020291906200092c565b92505081905550806000808473ffffffffffffffffffffffffffffffffffffffff1673ffffffffffffffffffffffffffffffffffffffff16815260200190815260200160002060008282546200025991906200092c565b925050819055508173ffffffffffffffffffffffffffffffffffffffff16600073ffffffffffffffffffffffffffffffffffffffff167fddf252ad1be2c89b69c2b068fc378daa952ba7f163c4a11628f55a4df523b3ef83604051620002c0919062000978565b60405180910390a3620002dc60008383620002e560201b60201c565b5050565b505050565b505050565b6000604051905090565b600080fd5b600080fd5b6000819050919050565b6200031381620002fe565b81146200031f57600080fd5b50565b600081519050620003338162000308565b92915050565b600080fd5b600080fd5b6000601f19601f8301169050919050565b7f4e487b7100000000000000000000000000000000000000000000000000000000600052604160045260246000fd5b6200038e8262000343565b810181811067ffffffffffffffff82111715620003b057620003af62000354565b5b80604052505050565b6000620003c5620002ea565b9050620003d3828262000383565b919050565b600067ffffffffffffffff821115620003f657620003f562000354565b5b620004018262000343565b9050602081019050919050565b60005b838110156200042e57808201518184015260208101905062000411565b60008484015250505050565b6000620004516200044b84620003d8565b620003b9565b90508281526020810184848401111562000470576200046f6200033e565b5b6200047d8482856200040e565b509392505050565b600082601f8301126200049d576200049c62000339565b5b8151620004af8482602086016200043a565b91505092915050565b600080600060608486031215620004d457620004d3620002f4565b5b6000620004e48682870162000322565b935050602084015167ffffffffffffffff811115620005085762000507620002f9565b5b620005168682870162000485565b925050604084015167ffffffffffffffff8111156200053a5762000539620002f9565b5b620005488682870162000485565b9150509250925092565b600081519050919050565b7f4e487b7100000000000000000000000000000000000000000000000000000000600052602260045260246000fd5b60006002820490506001821680620005a557607f821691505b602082108103620005bb57620005ba6200055d565b5b50919050565b60008190508160005260206000209050919050565b60006020601f8301049050919050565b600082821b905092915050565b600060088302620006257fffffffffffffffffffffffffffffffffffffffffffffffffffffffffffffffff82620005e6565b620006318683620005e6565b95508019841693508086168417925050509392505050565b6000819050919050565b6000620006746200066e6200066884620002fe565b62000649565b620002fe565b9050919050565b6000819050919050565b620006908362000653565b620006a86200069f826200067b565b848454620005f3565b825550505050565b600090565b620006bf620006b0565b620006cc81848462000685565b505050565b5b81811015620006f457620006e8600082620006b5565b600181019050620006d2565b5050565b601f82111562000743576200070d81620005c1565b6200071884620005d6565b8101602085101562000728578190505b620007406200073785620005d6565b830182620006d1565b50505b505050565b600082821c905092915050565b6000620007686000198460080262000748565b1980831691505092915050565b600062000783838362000755565b9150826002028217905092915050565b6200079e8262000552565b67ffffffffffffffff811115620007ba57620007b962000354565b5b620007c682546200058c565b620007d3828285620006f8565b600060209050601f8311600181146200080b5760008415620007f6578287015190505b62000802858262000775565b86555062000872565b601f1984166200081b86620005c1565b60005b8281101562000845578489015182556001820191506020850194506020810190506200081e565b8683101562000865578489015162000861601f89168262000755565b8355505b6001600288020188555050505b505050505050565b600082825260208201905092915050565b7f45524332303a206d696e7420746f20746865207a65726f206164647265737300600082015250565b6000620008c3601f836200087a565b9150620008d0826200088b565b602082019050919050565b60006020820190508181036000830152620008f681620008b4565b9050919050565b7f4e487b7100000000000000000000000000000000000000000000000000000000600052601160045260246000fd5b60006200093982620002fe565b91506200094683620002fe565b9250828201905080821115620009615762000960620008fd565b5b92915050565b6200097281620002fe565b82525050565b60006020820190506200098f600083018462000967565b92915050565b611bca80620009a56000396000f3fe608060405234801561001057600080fd5b506004361061010b5760003560e01c8063715018a6116100a2578063a457c2d711610071578063a457c2d7146102a8578063a9059cbb146102d8578063dd62ed3e14610308578063f2fde38b14610338578063f8a8fd6d146103545761010b565b8063715018a6146102465780638da5cb5b1461025057806395d89b411461026e578063a0712d681461028c5761010b565b8063313ce567116100de578063313ce567146101ac57806339509351146101ca57806342966c68146101fa57806370a08231146102165761010b565b806306fdde0314610110578063095ea7b31461012e57806318160ddd1461015e57806323b872dd1461017c575b600080fd5b610118610372565b604051610125919061118e565b60405180910390f35b61014860048036038101906101439190611249565b610404565b60405161015591906112a4565b60405180910390f35b610166610427565b60405161017391906112ce565b60405180910390f35b610196600480360381019061019191906112e9565b610431565b6040516101a391906112a4565b60405180910390f35b6101b4610460565b6040516101c19190611358565b60405180910390f35b6101e460048036038101906101df9190611249565b610465565b6040516101f191906112a4565b60405180910390f35b610214600480360381019061020f9190611373565b61049c565b005b610230600480360381019061022b91906113a0565b6104b8565b60405161023d91906112ce565b60405180910390f35b61024e610500565b005b610258610514565b60405161026591906113dc565b60405180910390f35b61027661053e565b604051610283919061118e565b60405180910390f35b6102a660048036038101906102a19190611373565b6105d0565b005b6102c260048036038101906102bd9190611249565b6105ec565b6040516102cf91906112a4565b60405180910390f35b6102f260048036038101906102ed9190611249565b610663565b6040516102ff91906112a4565b60405180910390f35b610322600480360381019061031d91906113f7565b610686565b60405161032f91906112ce565b60405180910390f35b610352600480360381019061034d91906113a0565b61070d565b005b61035c610790565b60405161036991906113dc565b60405180910390f35b60606003805461038190611466565b80601f01602080910402602001604051908101604052809291908181526020018280546103ad90611466565b80156103fa5780601f106103cf576101008083540402835291602001916103fa565b820191906000526020600020905b8154815290600101906020018083116103dd57829003601f168201915b5050505050905090565b60008061040f61079f565b905061041c8185856107a7565b600191505092915050565b6000600254905090565b60008061043c61079f565b9050610449858285610970565b6104548585856109fc565b60019150509392505050565b600090565b60008061047061079f565b90506104918185856104828589610686565b61048c91906114c6565b6107a7565b600191505092915050565b6104a4610c7b565b6104b56104af610514565b82610cf9565b50565b60008060008373ffffffffffffffffffffffffffffffffffffffff1673ffffffffffffffffffffffffffffffffffffffff168152602001908152602001600020549050919050565b610508610c7b565b6105126000610ecf565b565b6000600560009054906101000a900473ffffffffffffffffffffffffffffffffffffffff16905090565b60606004805461054d90611466565b80601f016020809104026020016040519081016040528092919081815260200182805461057990611466565b80156105c65780601f1061059b576101008083540402835291602001916105c6565b820191906000526020600020905b8154815290600101906020018083116105a957829003601f168201915b5050505050905090565b6105d8610c7b565b6105e96105e3610514565b82610f95565b50565b6000806105f761079f565b905060006106058286610686565b90508381101561064a576040517f08c379a00000000000000000000000000000000000000000000000000000000081526004016106419061156c565b60405180910390fd5b61065782868684036107a7565b60019250505092915050565b60008061066e61079f565b905061067b8185856109fc565b600191505092915050565b6000600160008473ffffffffffffffffffffffffffffffffffffffff1673ffffffffffffffffffffffffffffffffffffffff16815260200190815260200160002060008373ffffffffffffffffffffffffffffffffffffffff1673ffffffffffffffffffffffffffffffffffffffff16815260200190815260200160002054905092915050565b610715610c7b565b600073ffffffffffffffffffffffffffffffffffffffff168173ffffffffffffffffffffffffffffffffffffffff1603610784576040517f08c379a000000000000000000000000000000000000000000000000000000000815260040161077b906115fe565b60405180910390fd5b61078d81610ecf565b50565b600061079a61079f565b905090565b600033905090565b600073ffffffffffffffffffffffffffffffffffffffff168373ffffffffffffffffffffffffffffffffffffffff1603610816576040517f08c379a000000000000000000000000000000000000000000000000000000000815260040161080d90611690565b60405180910390fd5b600073ffffffffffffffffffffffffffffffffffffffff168273ffffffffffffffffffffffffffffffffffffffff1603610885576040517f08c379a000000000000000000000000000000000000000000000000000000000815260040161087c90611722565b60405180910390fd5b80600160008573ffffffffffffffffffffffffffffffffffffffff1673ffffffffffffffffffffffffffffffffffffffff16815260200190815260200160002060008473ffffffffffffffffffffffffffffffffffffffff1673ffffffffffffffffffffffffffffffffffffffff168152602001908152602001600020819055508173ffffffffffffffffffffffffffffffffffffffff168373ffffffffffffffffffffffffffffffffffffffff167f8c5be1e5ebec7d5bd14f71427d1e84f3dd0314c0f7b2291e5b200ac8c7c3b9258360405161096391906112ce565b60405180910390a3505050565b600061097c8484610686565b90507fffffffffffffffffffffffffffffffffffffffffffffffffffffffffffffffff81146109f657818110156109e8576040517f08c379a00000000000000000000000000000000000000000000000000000000081526004016109df9061178e565b60405180910390fd5b6109f584848484036107a7565b5b50505050565b600073ffffffffffffffffffffffffffffffffffffffff168373ffffffffffffffffffffffffffffffffffffffff1603610a6b576040517f08c379a0000000000000000000000000000000000000000000000000000000008152600401610a6290611820565b60405180910390fd5b600073ffffffffffffffffffffffffffffffffffffffff168273ffffffffffffffffffffffffffffffffffffffff1603610ada576040517f08c379a0000000000000000000000000000000000000000000000000000000008152600401610ad1906118b2565b60405180910390fd5b610ae58383836110f4565b60008060008573ffffffffffffffffffffffffffffffffffffffff1673ffffffffffffffffffffffffffffffffffffffff16815260200190815260200160002054905081811015610b6b576040517f08c379a0000000000000000000000000000000000000000000000000000000008152600401610b6290611944565b60405180910390fd5b8181036000808673ffffffffffffffffffffffffffffffffffffffff1673ffffffffffffffffffffffffffffffffffffffff16815260200190815260200160002081905550816000808573ffffffffffffffffffffffffffffffffffffffff1673ffffffffffffffffffffffffffffffffffffffff1681526020019081526020016000206000828254610bfe91906114c6565b925050819055508273ffffffffffffffffffffffffffffffffffffffff168473ffffffffffffffffffffffffffffffffffffffff167fddf252ad1be2c89b69c2b068fc378daa952ba7f163c4a11628f55a4df523b3ef84604051610c6291906112ce565b60405180910390a3610c758484846110f9565b50505050565b610c8361079f565b73ffffffffffffffffffffffffffffffffffffffff16610ca1610514565b73ffffffffffffffffffffffffffffffffffffffff1614610cf7576040517f08c379a0000000000000000000000000000000000000000000000000000000008152600401610cee906119b0565b60405180910390fd5b565b600073ffffffffffffffffffffffffffffffffffffffff168273ffffffffffffffffffffffffffffffffffffffff1603610d68576040517f08c379a0000000000000000000000000000000000000000000000000000000008152600401610d5f90611a42565b60405180910390fd5b610d74826000836110f4565b60008060008473ffffffffffffffffffffffffffffffffffffffff1673ffffffffffffffffffffffffffffffffffffffff16815260200190815260200160002054905081811015610dfa576040517f08c379a0000000000000000000000000000000000000000000000000000000008152600401610df190611ad4565b60405180910390fd5b8181036000808573ffffffffffffffffffffffffffffffffffffffff1673ffffffffffffffffffffffffffffffffffffffff168152602001908152602001600020819055508160026000828254610e519190611af4565b92505081905550600073ffffffffffffffffffffffffffffffffffffffff168373ffffffffffffffffffffffffffffffffffffffff167fddf252ad1be2c89b69c2b068fc378daa952ba7f163c4a11628f55a4df523b3ef84604051610eb691906112ce565b60405180910390a3610eca836000846110f9565b505050565b6000600560009054906101000a900473ffffffffffffffffffffffffffffffffffffffff16905081600560006101000a81548173ffffffffffffffffffffffffffffffffffffffff021916908373ffffffffffffffffffffffffffffffffffffffff1602179055508173ffffffffffffffffffffffffffffffffffffffff168173ffffffffffffffffffffffffffffffffffffffff167f8be0079c531659141344cd1fd0a4f28419497f9722a3daafe3b4186f6b6457e060405160405180910390a35050565b600073ffffffffffffffffffffffffffffffffffffffff168273ffffffffffffffffffffffffffffffffffffffff1603611004576040517f08c379a0000000000000000000000000000000000000000000000000000000008152600401610ffb90611b74565b60405180910390fd5b611010600083836110f4565b806002600082825461102291906114c6565b92505081905550806000808473ffffffffffffffffffffffffffffffffffffffff1673ffffffffffffffffffffffffffffffffffffffff168152602001908152602001600020600082825461107791906114c6565b925050819055508173ffffffffffffffffffffffffffffffffffffffff16600073ffffffffffffffffffffffffffffffffffffffff167fddf252ad1be2c89b69c2b068fc378daa952ba7f163c4a11628f55a4df523b3ef836040516110dc91906112ce565b60405180910390a36110f0600083836110f9565b5050565b505050565b505050565b600081519050919050565b600082825260208201905092915050565b60005b8381101561113857808201518184015260208101905061111d565b60008484015250505050565b6000601f19601f8301169050919050565b6000611160826110fe565b61116a8185611109565b935061117a81856020860161111a565b61118381611144565b840191505092915050565b600060208201905081810360008301526111a88184611155565b905092915050565b600080fd5b600073ffffffffffffffffffffffffffffffffffffffff82169050919050565b60006111e0826111b5565b9050919050565b6111f0816111d5565b81146111fb57600080fd5b50565b60008135905061120d816111e7565b92915050565b6000819050919050565b61122681611213565b811461123157600080fd5b50565b6000813590506112438161121d565b92915050565b600080604083850312156112605761125f6111b0565b5b600061126e858286016111fe565b925050602061127f85828601611234565b9150509250929050565b60008115159050919050565b61129e81611289565b82525050565b60006020820190506112b96000830184611295565b92915050565b6112c881611213565b82525050565b60006020820190506112e360008301846112bf565b92915050565b600080600060608486031215611302576113016111b0565b5b6000611310868287016111fe565b9350506020611321868287016111fe565b925050604061133286828701611234565b9150509250925092565b600060ff82169050919050565b6113528161133c565b82525050565b600060208201905061136d6000830184611349565b92915050565b600060208284031215611389576113886111b0565b5b600061139784828501611234565b91505092915050565b6000602082840312156113b6576113b56111b0565b5b60006113c4848285016111fe565b91505092915050565b6113d6816111d5565b82525050565b60006020820190506113f160008301846113cd565b92915050565b6000806040838503121561140e5761140d6111b0565b5b600061141c858286016111fe565b925050602061142d858286016111fe565b9150509250929050565b7f4e487b7100000000000000000000000000000000000000000000000000000000600052602260045260246000fd5b6000600282049050600182168061147e57607f821691505b60208210810361149157611490611437565b5b50919050565b7f4e487b7100000000000000000000000000000000000000000000000000000000600052601160045260246000fd5b60006114d182611213565b91506114dc83611213565b92508282019050808211156114f4576114f3611497565b5b92915050565b7f45524332303a2064656372656173656420616c6c6f77616e63652062656c6f7760008201527f207a65726f000000000000000000000000000000000000000000000000000000602082015250565b6000611556602583611109565b9150611561826114fa565b604082019050919050565b6000602082019050818103600083015261158581611549565b9050919050565b7f4f776e61626c653a206e6577206f776e657220697320746865207a65726f206160008201527f6464726573730000000000000000000000000000000000000000000000000000602082015250565b60006115e8602683611109565b91506115f38261158c565b604082019050919050565b60006020820190508181036000830152611617816115db565b9050919050565b7f45524332303a20617070726f76652066726f6d20746865207a65726f2061646460008201527f7265737300000000000000000000000000000000000000000000000000000000602082015250565b600061167a602483611109565b91506116858261161e565b604082019050919050565b600060208201905081810360008301526116a98161166d565b9050919050565b7f45524332303a20617070726f766520746f20746865207a65726f20616464726560008201527f7373000000000000000000000000000000000000000000000000000000000000602082015250565b600061170c602283611109565b9150611717826116b0565b604082019050919050565b6000602082019050818103600083015261173b816116ff565b9050919050565b7f45524332303a20696e73756666696369656e7420616c6c6f77616e6365000000600082015250565b6000611778601d83611109565b915061178382611742565b602082019050919050565b600060208201905081810360008301526117a78161176b565b9050919050565b7f45524332303a207472616e736665722066726f6d20746865207a65726f20616460008201527f6472657373000000000000000000000000000000000000000000000000000000602082015250565b600061180a602583611109565b9150611815826117ae565b604082019050919050565b60006020820190508181036000830152611839816117fd565b9050919050565b7f45524332303a207472616e7366657220746f20746865207a65726f206164647260008201527f6573730000000000000000000000000000000000000000000000000000000000602082015250565b600061189c602383611109565b91506118a782611840565b604082019050919050565b600060208201905081810360008301526118cb8161188f565b9050919050565b7f45524332303a207472616e7366657220616d6f756e742065786365656473206260008201527f616c616e63650000000000000000000000000000000000000000000000000000602082015250565b600061192e602683611109565b9150611939826118d2565b604082019050919050565b6000602082019050818103600083015261195d81611921565b9050919050565b7f4f776e61626c653a2063616c6c6572206973206e6f7420746865206f776e6572600082015250565b600061199a602083611109565b91506119a582611964565b602082019050919050565b600060208201905081810360008301526119c98161198d565b9050919050565b7f45524332303a206275726e2066726f6d20746865207a65726f2061646472657360008201527f7300000000000000000000000000000000000000000000000000000000000000602082015250565b6000611a2c602183611109565b9150611a37826119d0565b604082019050919050565b60006020820190508181036000830152611a5b81611a1f565b9050919050565b7f45524332303a206275726e20616d6f756e7420657863656564732062616c616e60008201527f6365000000000000000000000000000000000000000000000000000000000000602082015250565b6000611abe602283611109565b9150611ac982611a62565b604082019050919050565b60006020820190508181036000830152611aed81611ab1565b9050919050565b6000611aff82611213565b9150611b0a83611213565b9250828203905081811115611b2257611b21611497565b5b92915050565b7f45524332303a206d696e7420746f20746865207a65726f206164647265737300600082015250565b6000611b5e601f83611109565b9150611b6982611b28565b602082019050919050565b60006020820190508181036000830152611b8d81611b51565b905091905056fea26469706673582212202cf3484eb263357196687f37334407ecb1435d9a311f7a1a8331f23ada9098f364736f6c63430008110033",
  "immutableReferences": {},
  "source": "// SPDX-License-Identifier: MIT\npragma solidity ^0.8.9;\n\nimport \"@openzeppelin/contracts/token/ERC20/ERC20.sol\";\nimport \"@openzeppelin/contracts/access/Ownable.sol\";\n\ncontract Token is ERC20, Ownable {\n    constructor(\n        uint256 initialSupply,\n        string memory _name,\n        string memory _symbol\n    ) ERC20(_name, _symbol) {\n        _mint(msg.sender, initialSupply);\n    }\n\n    function mint(uint256 amount) public onlyOwner {\n        _mint(owner(), amount);\n    }\n\n    function burn(uint256 amount) public onlyOwner {\n        _burn(owner(), amount);\n    }\n\n    function decimals() public view virtual override returns (uint8) {\n        return 0;\n    }\n\n    function test() public view returns (address) {\n        return _msgSender();\n    }\n}\n",
  "sourcePath": "/Users/yunjichoi/development/working/ecocircle/ecocircleBlockchain/contracts/Token.sol",
  "compiler": {
    "name": "solc",
    "version": "0.8.17+commit.8df45f5f.Emscripten.clang"
  },
  "schemaVersion": "3.4.7",
  "updatedAt": "2022-09-20T22:21:02.943Z",
  "networkType": "ethereum",
  "devdoc": {
    "kind": "dev",
    "methods": {
      "allowance(address,address)": {
        "details": "See {IERC20-allowance}."
      },
      "approve(address,uint256)": {
        "details": "See {IERC20-approve}. NOTE: If `amount` is the maximum `uint256`, the allowance is not updated on `transferFrom`. This is semantically equivalent to an infinite approval. Requirements: - `spender` cannot be the zero address."
      },
      "balanceOf(address)": {
        "details": "See {IERC20-balanceOf}."
      },
      "decimals()": {
        "details": "Returns the number of decimals used to get its user representation. For example, if `decimals` equals `2`, a balance of `505` tokens should be displayed to a user as `5.05` (`505 / 10 ** 2`). Tokens usually opt for a value of 18, imitating the relationship between Ether and Wei. This is the value {ERC20} uses, unless this function is overridden; NOTE: This information is only used for _display_ purposes: it in no way affects any of the arithmetic of the contract, including {IERC20-balanceOf} and {IERC20-transfer}."
      },
      "decreaseAllowance(address,uint256)": {
        "details": "Atomically decreases the allowance granted to `spender` by the caller. This is an alternative to {approve} that can be used as a mitigation for problems described in {IERC20-approve}. Emits an {Approval} event indicating the updated allowance. Requirements: - `spender` cannot be the zero address. - `spender` must have allowance for the caller of at least `subtractedValue`."
      },
      "increaseAllowance(address,uint256)": {
        "details": "Atomically increases the allowance granted to `spender` by the caller. This is an alternative to {approve} that can be used as a mitigation for problems described in {IERC20-approve}. Emits an {Approval} event indicating the updated allowance. Requirements: - `spender` cannot be the zero address."
      },
      "name()": {
        "details": "Returns the name of the token."
      },
      "owner()": {
        "details": "Returns the address of the current owner."
      },
      "renounceOwnership()": {
        "details": "Leaves the contract without owner. It will not be possible to call `onlyOwner` functions anymore. Can only be called by the current owner. NOTE: Renouncing ownership will leave the contract without an owner, thereby removing any functionality that is only available to the owner."
      },
      "symbol()": {
        "details": "Returns the symbol of the token, usually a shorter version of the name."
      },
      "totalSupply()": {
        "details": "See {IERC20-totalSupply}."
      },
      "transfer(address,uint256)": {
        "details": "See {IERC20-transfer}. Requirements: - `to` cannot be the zero address. - the caller must have a balance of at least `amount`."
      },
      "transferFrom(address,address,uint256)": {
        "details": "See {IERC20-transferFrom}. Emits an {Approval} event indicating the updated allowance. This is not required by the EIP. See the note at the beginning of {ERC20}. NOTE: Does not update the allowance if the current allowance is the maximum `uint256`. Requirements: - `from` and `to` cannot be the zero address. - `from` must have a balance of at least `amount`. - the caller must have allowance for ``from``'s tokens of at least `amount`."
      },
      "transferOwnership(address)": {
        "details": "Transfers ownership of the contract to a new account (`newOwner`). Can only be called by the current owner."
      }
    },
    "version": 1
  },
  "userdoc": {
    "kind": "user",
    "methods": {},
    "version": 1
  }
}